{
  "contractName": "LimeToken",
  "abi": [
    {
      "inputs": [],
      "stateMutability": "nonpayable",
      "type": "constructor"
    },
    {
      "anonymous": false,
      "inputs": [
        {
          "indexed": true,
          "internalType": "address",
          "name": "owner",
          "type": "address"
        },
        {
          "indexed": true,
          "internalType": "address",
          "name": "spender",
          "type": "address"
        },
        {
          "indexed": false,
          "internalType": "uint256",
          "name": "value",
          "type": "uint256"
        }
      ],
      "name": "Approval",
      "type": "event"
    },
    {
      "anonymous": false,
      "inputs": [
        {
          "indexed": false,
          "internalType": "address",
          "name": "account",
          "type": "address"
        }
      ],
      "name": "Paused",
      "type": "event"
    },
    {
      "anonymous": false,
      "inputs": [
        {
          "indexed": true,
          "internalType": "bytes32",
          "name": "role",
          "type": "bytes32"
        },
        {
          "indexed": true,
          "internalType": "bytes32",
          "name": "previousAdminRole",
          "type": "bytes32"
        },
        {
          "indexed": true,
          "internalType": "bytes32",
          "name": "newAdminRole",
          "type": "bytes32"
        }
      ],
      "name": "RoleAdminChanged",
      "type": "event"
    },
    {
      "anonymous": false,
      "inputs": [
        {
          "indexed": true,
          "internalType": "bytes32",
          "name": "role",
          "type": "bytes32"
        },
        {
          "indexed": true,
          "internalType": "address",
          "name": "account",
          "type": "address"
        },
        {
          "indexed": true,
          "internalType": "address",
          "name": "sender",
          "type": "address"
        }
      ],
      "name": "RoleGranted",
      "type": "event"
    },
    {
      "anonymous": false,
      "inputs": [
        {
          "indexed": true,
          "internalType": "bytes32",
          "name": "role",
          "type": "bytes32"
        },
        {
          "indexed": true,
          "internalType": "address",
          "name": "account",
          "type": "address"
        },
        {
          "indexed": true,
          "internalType": "address",
          "name": "sender",
          "type": "address"
        }
      ],
      "name": "RoleRevoked",
      "type": "event"
    },
    {
      "anonymous": false,
      "inputs": [
        {
          "indexed": true,
          "internalType": "address",
          "name": "from",
          "type": "address"
        },
        {
          "indexed": true,
          "internalType": "address",
          "name": "to",
          "type": "address"
        },
        {
          "indexed": false,
          "internalType": "uint256",
          "name": "value",
          "type": "uint256"
        }
      ],
      "name": "Transfer",
      "type": "event"
    },
    {
      "anonymous": false,
      "inputs": [
        {
          "indexed": false,
          "internalType": "address",
          "name": "account",
          "type": "address"
        }
      ],
      "name": "Unpaused",
      "type": "event"
    },
    {
      "inputs": [],
      "name": "DEFAULT_ADMIN_ROLE",
      "outputs": [
        {
          "internalType": "bytes32",
          "name": "",
          "type": "bytes32"
        }
      ],
      "stateMutability": "view",
      "type": "function"
    },
    {
      "inputs": [],
      "name": "MINTER_ROLE",
      "outputs": [
        {
          "internalType": "bytes32",
          "name": "",
          "type": "bytes32"
        }
      ],
      "stateMutability": "view",
      "type": "function"
    },
    {
      "inputs": [],
      "name": "PAUSER_ROLE",
      "outputs": [
        {
          "internalType": "bytes32",
          "name": "",
          "type": "bytes32"
        }
      ],
      "stateMutability": "view",
      "type": "function"
    },
    {
      "inputs": [
        {
          "internalType": "address",
          "name": "owner",
          "type": "address"
        },
        {
          "internalType": "address",
          "name": "spender",
          "type": "address"
        }
      ],
      "name": "allowance",
      "outputs": [
        {
          "internalType": "uint256",
          "name": "",
          "type": "uint256"
        }
      ],
      "stateMutability": "view",
      "type": "function"
    },
    {
      "inputs": [
        {
          "internalType": "address",
          "name": "spender",
          "type": "address"
        },
        {
          "internalType": "uint256",
          "name": "amount",
          "type": "uint256"
        }
      ],
      "name": "approve",
      "outputs": [
        {
          "internalType": "bool",
          "name": "",
          "type": "bool"
        }
      ],
      "stateMutability": "nonpayable",
      "type": "function"
    },
    {
      "inputs": [
        {
          "internalType": "address",
          "name": "account",
          "type": "address"
        }
      ],
      "name": "balanceOf",
      "outputs": [
        {
          "internalType": "uint256",
          "name": "",
          "type": "uint256"
        }
      ],
      "stateMutability": "view",
      "type": "function"
    },
    {
      "inputs": [
        {
          "internalType": "uint256",
          "name": "amount",
          "type": "uint256"
        }
      ],
      "name": "burn",
      "outputs": [],
      "stateMutability": "nonpayable",
      "type": "function"
    },
    {
      "inputs": [
        {
          "internalType": "address",
          "name": "account",
          "type": "address"
        },
        {
          "internalType": "uint256",
          "name": "amount",
          "type": "uint256"
        }
      ],
      "name": "burnFrom",
      "outputs": [],
      "stateMutability": "nonpayable",
      "type": "function"
    },
    {
      "inputs": [],
      "name": "decimals",
      "outputs": [
        {
          "internalType": "uint8",
          "name": "",
          "type": "uint8"
        }
      ],
      "stateMutability": "view",
      "type": "function"
    },
    {
      "inputs": [
        {
          "internalType": "address",
          "name": "spender",
          "type": "address"
        },
        {
          "internalType": "uint256",
          "name": "subtractedValue",
          "type": "uint256"
        }
      ],
      "name": "decreaseAllowance",
      "outputs": [
        {
          "internalType": "bool",
          "name": "",
          "type": "bool"
        }
      ],
      "stateMutability": "nonpayable",
      "type": "function"
    },
    {
      "inputs": [
        {
          "internalType": "bytes32",
          "name": "role",
          "type": "bytes32"
        }
      ],
      "name": "getRoleAdmin",
      "outputs": [
        {
          "internalType": "bytes32",
          "name": "",
          "type": "bytes32"
        }
      ],
      "stateMutability": "view",
      "type": "function"
    },
    {
      "inputs": [
        {
          "internalType": "bytes32",
          "name": "role",
          "type": "bytes32"
        },
        {
          "internalType": "uint256",
          "name": "index",
          "type": "uint256"
        }
      ],
      "name": "getRoleMember",
      "outputs": [
        {
          "internalType": "address",
          "name": "",
          "type": "address"
        }
      ],
      "stateMutability": "view",
      "type": "function"
    },
    {
      "inputs": [
        {
          "internalType": "bytes32",
          "name": "role",
          "type": "bytes32"
        }
      ],
      "name": "getRoleMemberCount",
      "outputs": [
        {
          "internalType": "uint256",
          "name": "",
          "type": "uint256"
        }
      ],
      "stateMutability": "view",
      "type": "function"
    },
    {
      "inputs": [
        {
          "internalType": "bytes32",
          "name": "role",
          "type": "bytes32"
        },
        {
          "internalType": "address",
          "name": "account",
          "type": "address"
        }
      ],
      "name": "grantRole",
      "outputs": [],
      "stateMutability": "nonpayable",
      "type": "function"
    },
    {
      "inputs": [
        {
          "internalType": "bytes32",
          "name": "role",
          "type": "bytes32"
        },
        {
          "internalType": "address",
          "name": "account",
          "type": "address"
        }
      ],
      "name": "hasRole",
      "outputs": [
        {
          "internalType": "bool",
          "name": "",
          "type": "bool"
        }
      ],
      "stateMutability": "view",
      "type": "function"
    },
    {
      "inputs": [
        {
          "internalType": "address",
          "name": "spender",
          "type": "address"
        },
        {
          "internalType": "uint256",
          "name": "addedValue",
          "type": "uint256"
        }
      ],
      "name": "increaseAllowance",
      "outputs": [
        {
          "internalType": "bool",
          "name": "",
          "type": "bool"
        }
      ],
      "stateMutability": "nonpayable",
      "type": "function"
    },
    {
      "inputs": [
        {
          "internalType": "address",
          "name": "to",
          "type": "address"
        },
        {
          "internalType": "uint256",
          "name": "amount",
          "type": "uint256"
        }
      ],
      "name": "mint",
      "outputs": [],
      "stateMutability": "nonpayable",
      "type": "function"
    },
    {
      "inputs": [],
      "name": "name",
      "outputs": [
        {
          "internalType": "string",
          "name": "",
          "type": "string"
        }
      ],
      "stateMutability": "view",
      "type": "function"
    },
    {
      "inputs": [],
      "name": "pause",
      "outputs": [],
      "stateMutability": "nonpayable",
      "type": "function"
    },
    {
      "inputs": [],
      "name": "paused",
      "outputs": [
        {
          "internalType": "bool",
          "name": "",
          "type": "bool"
        }
      ],
      "stateMutability": "view",
      "type": "function"
    },
    {
      "inputs": [
        {
          "internalType": "bytes32",
          "name": "role",
          "type": "bytes32"
        },
        {
          "internalType": "address",
          "name": "account",
          "type": "address"
        }
      ],
      "name": "renounceRole",
      "outputs": [],
      "stateMutability": "nonpayable",
      "type": "function"
    },
    {
      "inputs": [
        {
          "internalType": "bytes32",
          "name": "role",
          "type": "bytes32"
        },
        {
          "internalType": "address",
          "name": "account",
          "type": "address"
        }
      ],
      "name": "revokeRole",
      "outputs": [],
      "stateMutability": "nonpayable",
      "type": "function"
    },
    {
      "inputs": [],
      "name": "symbol",
      "outputs": [
        {
          "internalType": "string",
          "name": "",
          "type": "string"
        }
      ],
      "stateMutability": "view",
      "type": "function"
    },
    {
      "inputs": [],
      "name": "totalSupply",
      "outputs": [
        {
          "internalType": "uint256",
          "name": "",
          "type": "uint256"
        }
      ],
      "stateMutability": "view",
      "type": "function"
    },
    {
      "inputs": [
        {
          "internalType": "address",
          "name": "recipient",
          "type": "address"
        },
        {
          "internalType": "uint256",
          "name": "amount",
          "type": "uint256"
        }
      ],
      "name": "transfer",
      "outputs": [
        {
          "internalType": "bool",
          "name": "",
          "type": "bool"
        }
      ],
      "stateMutability": "nonpayable",
      "type": "function"
    },
    {
      "inputs": [
        {
          "internalType": "address",
          "name": "sender",
          "type": "address"
        },
        {
          "internalType": "address",
          "name": "recipient",
          "type": "address"
        },
        {
          "internalType": "uint256",
          "name": "amount",
          "type": "uint256"
        }
      ],
      "name": "transferFrom",
      "outputs": [
        {
          "internalType": "bool",
          "name": "",
          "type": "bool"
        }
      ],
      "stateMutability": "nonpayable",
      "type": "function"
    },
    {
      "inputs": [],
      "name": "unpause",
      "outputs": [],
      "stateMutability": "nonpayable",
      "type": "function"
    }
  ],
  "bytecode": "0x60806040523480156200001157600080fd5b5060408051808201825260098152682634b6b2aa37b5b2b760b91b60208083019182528351808501909452600384526213135560ea1b9084015281519192918391839162000062916004916200021f565b508051620000789060059060208401906200021f565b50506006805461ff001960ff1990911660121716905550620000a560006200009f6200010b565b6200010f565b620000d47f9f2df0fed2c77648de5860a4cc508cd0818c85b8b8a1ab4ceeef8d981c8956a66200009f6200010b565b620001037f65d7a28e3265b37a6474929f336521b332c1681b933f6cb9f3376673440d862a6200009f6200010b565b5050620002cb565b3390565b6200011b82826200011f565b5050565b60008281526020818152604090912062000144918390620009e462000198821b17901c565b156200011b57620001546200010b565b6001600160a01b0316816001600160a01b0316837f2f8788117e7eff1d82e926ec794901d17c78024a50270940304540a733656f0d60405160405180910390a45050565b6000620001af836001600160a01b038416620001b8565b90505b92915050565b6000620001c6838362000207565b620001fe57508154600181810184556000848152602080822090930184905584548482528286019093526040902091909155620001b2565b506000620001b2565b60009081526001919091016020526040902054151590565b828054600181600116156101000203166002900490600052602060002090601f016020900481019282620002575760008555620002a2565b82601f106200027257805160ff1916838001178555620002a2565b82800160010185558215620002a2579182015b82811115620002a257825182559160200191906001019062000285565b50620002b0929150620002b4565b5090565b5b80821115620002b05760008155600101620002b5565b61186e80620002db6000396000f3fe608060405234801561001057600080fd5b50600436106101a95760003560e01c806370a08231116100f9578063a457c2d711610097578063d539139311610071578063d539139314610357578063d547741f1461035f578063dd62ed3e14610372578063e63ab1e914610385576101a9565b8063a457c2d71461031e578063a9059cbb14610331578063ca15c87314610344576101a9565b80639010d07c116100d35780639010d07c146102db57806391d14854146102fb57806395d89b411461030e578063a217fddf14610316576101a9565b806370a08231146102ad57806379cc6790146102c05780638456cb59146102d3576101a9565b8063313ce567116101665780633f4ba83a116101405780633f4ba83a1461027757806340c10f191461027f57806342966c68146102925780635c975abb146102a5576101a9565b8063313ce5671461023c57806336568abe146102515780633950935114610264576101a9565b806306fdde03146101ae578063095ea7b3146101cc57806318160ddd146101ec57806323b872dd14610201578063248a9ca3146102145780632f2ff15d14610227575b600080fd5b6101b661038d565b6040516101c391906114ef565b60405180910390f35b6101df6101da366004611443565b610423565b6040516101c391906114db565b6101f4610441565b6040516101c391906114e6565b6101df61020f366004611408565b610447565b6101f461022236600461146c565b6104ce565b61023a610235366004611484565b6104e6565b005b61024461054d565b6040516101c39190611542565b61023a61025f366004611484565b610556565b6101df610272366004611443565b6105b7565b61023a610605565b61023a61028d366004611443565b610676565b61023a6102a036600461146c565b6106e7565b6101df6106fb565b6101f46102bb3660046113bc565b610709565b61023a6102ce366004611443565b610724565b61023a610779565b6102ee6102e93660046114a6565b6107e8565b6040516101c391906114c7565b6101df610309366004611484565b610807565b6101b661081f565b6101f4610880565b6101df61032c366004611443565b610885565b6101df61033f366004611443565b6108ed565b6101f461035236600461146c565b610901565b6101f4610918565b61023a61036d366004611484565b61093c565b6101f46103803660046113d6565b610995565b6101f46109c0565b60048054604080516020601f60026000196101006001881615020190951694909404938401819004810282018101909252828152606093909290918301828280156104195780601f106103ee57610100808354040283529160200191610419565b820191906000526020600020905b8154815290600101906020018083116103fc57829003601f168201915b5050505050905090565b60006104376104306109f9565b84846109fd565b5060015b92915050565b60035490565b6000610454848484610ae9565b6104c4846104606109f9565b6104bf85604051806060016040528060288152602001611698602891396001600160a01b038a1660009081526002602052604081209061049e6109f9565b6001600160a01b031681526020810191909152604001600020549190610c46565b6109fd565b5060019392505050565b6000818152602081905260409020600201545b919050565b600082815260208190526040902060020154610504906103096109f9565b61053f5760405162461bcd60e51b815260040180806020018281038252602f815260200180611596602f913960400191505060405180910390fd5b6105498282610cdd565b5050565b60065460ff1690565b61055e6109f9565b6001600160a01b0316816001600160a01b0316146105ad5760405162461bcd60e51b815260040180806020018281038252602f8152602001806117e0602f913960400191505060405180910390fd5b6105498282610d46565b60006104376105c46109f9565b846104bf85600260006105d56109f9565b6001600160a01b03908116825260208083019390935260409182016000908120918c168152925290205490610daf565b6106317f65d7a28e3265b37a6474929f336521b332c1681b933f6cb9f3376673440d862a6103096109f9565b61066c5760405162461bcd60e51b81526004018080602001828103825260398152602001806115e76039913960400191505060405180910390fd5b610674610e09565b565b6106a27f9f2df0fed2c77648de5860a4cc508cd0818c85b8b8a1ab4ceeef8d981c8956a66103096109f9565b6106dd5760405162461bcd60e51b81526004018080602001828103825260368152602001806116c06036913960400191505060405180910390fd5b6105498282610eaa565b6106f86106f26109f9565b82610f9c565b50565b600654610100900460ff1690565b6001600160a01b031660009081526001602052604090205490565b6000610756826040518060600160405280602481526020016116f66024913961074f866103806109f9565b9190610c46565b905061076a836107646109f9565b836109fd565b6107748383610f9c565b505050565b6107a57f65d7a28e3265b37a6474929f336521b332c1681b933f6cb9f3376673440d862a6103096109f9565b6107e05760405162461bcd60e51b81526004018080602001828103825260378152602001806117846037913960400191505060405180910390fd5b610674611098565b6000828152602081905260408120610800908361111d565b9392505050565b60008281526020819052604081206108009083611129565b60058054604080516020601f60026000196101006001881615020190951694909404938401819004810282018101909252828152606093909290918301828280156104195780601f106103ee57610100808354040283529160200191610419565b600081565b60006104376108926109f9565b846104bf856040518060600160405280602581526020016117bb60259139600260006108bc6109f9565b6001600160a01b03908116825260208083019390935260409182016000908120918d16815292529020549190610c46565b60006104376108fa6109f9565b8484610ae9565b600081815260208190526040812061043b9061113e565b7f9f2df0fed2c77648de5860a4cc508cd0818c85b8b8a1ab4ceeef8d981c8956a681565b60008281526020819052604090206002015461095a906103096109f9565b6105ad5760405162461bcd60e51b81526004018080602001828103825260308152602001806116686030913960400191505060405180910390fd5b6001600160a01b03918216600090815260026020908152604080832093909416825291909152205490565b7f65d7a28e3265b37a6474929f336521b332c1681b933f6cb9f3376673440d862a81565b6000610800836001600160a01b038416611149565b3390565b6001600160a01b038316610a425760405162461bcd60e51b81526004018080602001828103825260248152602001806117606024913960400191505060405180910390fd5b6001600160a01b038216610a875760405162461bcd60e51b81526004018080602001828103825260228152602001806116206022913960400191505060405180910390fd5b6001600160a01b03808416600081815260026020908152604080832094871680845294825291829020859055815185815291517f8c5be1e5ebec7d5bd14f71427d1e84f3dd0314c0f7b2291e5b200ac8c7c3b9259281900390910190a3505050565b6001600160a01b038316610b2e5760405162461bcd60e51b815260040180806020018281038252602581526020018061173b6025913960400191505060405180910390fd5b6001600160a01b038216610b735760405162461bcd60e51b81526004018080602001828103825260238152602001806115736023913960400191505060405180910390fd5b610b7e838383611193565b610bbb81604051806060016040528060268152602001611642602691396001600160a01b0386166000908152600160205260409020549190610c46565b6001600160a01b038085166000908152600160205260408082209390935590841681522054610bea9082610daf565b6001600160a01b0380841660008181526001602090815260409182902094909455805185815290519193928716927fddf252ad1be2c89b69c2b068fc378daa952ba7f163c4a11628f55a4df523b3ef92918290030190a3505050565b60008184841115610cd55760405162461bcd60e51b81526004018080602001828103825283818151815260200191508051906020019080838360005b83811015610c9a578181015183820152602001610c82565b50505050905090810190601f168015610cc75780820380516001836020036101000a031916815260200191505b509250505060405180910390fd5b505050900390565b6000828152602081905260409020610cf590826109e4565b1561054957610d026109f9565b6001600160a01b0316816001600160a01b0316837f2f8788117e7eff1d82e926ec794901d17c78024a50270940304540a733656f0d60405160405180910390a45050565b6000828152602081905260409020610d5e908261119e565b1561054957610d6b6109f9565b6001600160a01b0316816001600160a01b0316837ff6391f5c32d9c69d2a47ea670b442974b53935d1edc7fd64eb21e047a839171b60405160405180910390a45050565b600082820183811015610800576040805162461bcd60e51b815260206004820152601b60248201527f536166654d6174683a206164646974696f6e206f766572666c6f770000000000604482015290519081900360640190fd5b610e116106fb565b610e59576040805162461bcd60e51b815260206004820152601460248201527314185d5cd8589b194e881b9bdd081c185d5cd95960621b604482015290519081900360640190fd5b6006805461ff00191690557f5db9ee0a495bf2e6ff9c91a7834c1ba4fdd244a5e8aa4e537bd38aeae4b073aa610e8d6109f9565b604080516001600160a01b039092168252519081900360200190a1565b6001600160a01b038216610f05576040805162461bcd60e51b815260206004820152601f60248201527f45524332303a206d696e7420746f20746865207a65726f206164647265737300604482015290519081900360640190fd5b610f1160008383611193565b600354610f1e9082610daf565b6003556001600160a01b038216600090815260016020526040902054610f449082610daf565b6001600160a01b03831660008181526001602090815260408083209490945583518581529351929391927fddf252ad1be2c89b69c2b068fc378daa952ba7f163c4a11628f55a4df523b3ef9281900390910190a35050565b6001600160a01b038216610fe15760405162461bcd60e51b815260040180806020018281038252602181526020018061171a6021913960400191505060405180910390fd5b610fed82600083611193565b61102a816040518060600160405280602281526020016115c5602291396001600160a01b0385166000908152600160205260409020549190610c46565b6001600160a01b03831660009081526001602052604090205560035461105090826111b3565b6003556040805182815290516000916001600160a01b038516917fddf252ad1be2c89b69c2b068fc378daa952ba7f163c4a11628f55a4df523b3ef9181900360200190a35050565b6110a06106fb565b156110e5576040805162461bcd60e51b815260206004820152601060248201526f14185d5cd8589b194e881c185d5cd95960821b604482015290519081900360640190fd5b6006805461ff0019166101001790557f62e78cea01bee320cd4e420270b5ea74000d11b0c9f74754ebdbfc544b05a258610e8d6109f9565b60006108008383611210565b6000610800836001600160a01b038416611274565b600061043b8261128c565b60006111558383611274565b61118b5750815460018181018455600084815260208082209093018490558454848252828601909352604090209190915561043b565b50600061043b565b610774838383611290565b6000610800836001600160a01b0384166112df565b60008282111561120a576040805162461bcd60e51b815260206004820152601e60248201527f536166654d6174683a207375627472616374696f6e206f766572666c6f770000604482015290519081900360640190fd5b50900390565b815460009082106112525760405162461bcd60e51b81526004018080602001828103825260228152602001806115516022913960400191505060405180910390fd5b82600001828154811061126157fe5b9060005260206000200154905092915050565b60009081526001919091016020526040902054151590565b5490565b61129b838383610774565b6112a36106fb565b156107745760405162461bcd60e51b815260040180806020018281038252602a81526020018061180f602a913960400191505060405180910390fd5b6000818152600183016020526040812054801561139b578354600019808301919081019060009087908390811061131257fe5b906000526020600020015490508087600001848154811061132f57fe5b60009182526020808320909101929092558281526001898101909252604090209084019055865487908061135f57fe5b6001900381819060005260206000200160009055905586600101600087815260200190815260200160002060009055600194505050505061043b565b600091505061043b565b80356001600160a01b03811681146104e157600080fd5b6000602082840312156113cd578081fd5b610800826113a5565b600080604083850312156113e8578081fd5b6113f1836113a5565b91506113ff602084016113a5565b90509250929050565b60008060006060848603121561141c578081fd5b611425846113a5565b9250611433602085016113a5565b9150604084013590509250925092565b60008060408385031215611455578182fd5b61145e836113a5565b946020939093013593505050565b60006020828403121561147d578081fd5b5035919050565b60008060408385031215611496578182fd5b823591506113ff602084016113a5565b600080604083850312156114b8578182fd5b50508035926020909101359150565b6001600160a01b0391909116815260200190565b901515815260200190565b90815260200190565b6000602080835283518082850152825b8181101561151b578581018301518582016040015282016114ff565b8181111561152c5783604083870101525b50601f01601f1916929092016040019392505050565b60ff9190911681526020019056fe456e756d657261626c655365743a20696e646578206f7574206f6620626f756e647345524332303a207472616e7366657220746f20746865207a65726f2061646472657373416363657373436f6e74726f6c3a2073656e646572206d75737420626520616e2061646d696e20746f206772616e7445524332303a206275726e20616d6f756e7420657863656564732062616c616e636545524332305072657365744d696e7465725061757365723a206d75737420686176652070617573657220726f6c6520746f20756e706175736545524332303a20617070726f766520746f20746865207a65726f206164647265737345524332303a207472616e7366657220616d6f756e7420657863656564732062616c616e6365416363657373436f6e74726f6c3a2073656e646572206d75737420626520616e2061646d696e20746f207265766f6b6545524332303a207472616e7366657220616d6f756e74206578636565647320616c6c6f77616e636545524332305072657365744d696e7465725061757365723a206d7573742068617665206d696e74657220726f6c6520746f206d696e7445524332303a206275726e20616d6f756e74206578636565647320616c6c6f77616e636545524332303a206275726e2066726f6d20746865207a65726f206164647265737345524332303a207472616e736665722066726f6d20746865207a65726f206164647265737345524332303a20617070726f76652066726f6d20746865207a65726f206164647265737345524332305072657365744d696e7465725061757365723a206d75737420686176652070617573657220726f6c6520746f20706175736545524332303a2064656372656173656420616c6c6f77616e63652062656c6f77207a65726f416363657373436f6e74726f6c3a2063616e206f6e6c792072656e6f756e636520726f6c657320666f722073656c6645524332305061757361626c653a20746f6b656e207472616e73666572207768696c6520706175736564a26469706673582212208dc0e5ceb053488feca8fea4c50c58368fc7aebd317a6abfdd365213c6bff38c64736f6c63430007050033",
  "source": "// SPDX-License-Identifier: UNLICENSED\npragma solidity ^0.7.0;\npragma abicoder v2;\n\nimport \"@openzeppelin/contracts/presets/ERC20PresetMinterPauser.sol\";\n\ncontract LimeToken is ERC20PresetMinterPauser {\n\n\tconstructor() ERC20PresetMinterPauser(\"LimeToken\", \"LMT\") {\n\n\t}\n\n}",
  "sourcePath": "/Users/milenaatanasova/Documents/onboarding/ERC20/contracts/LimeToken.sol",
  "compiler": {
    "name": "solc",
    "version": "0.7.5+commit.eb77ed08.Emscripten.clang",
    "optimizer": true,
    "runs": 200
  },
  "schemaVersion": "2.3.5",
  "updatedAt": "2021-04-26T10:59:25.090Z"
}